:020000040800F2
:100000000050002095160008B1110008B711000833
:10001000BD110008C3110008C9110008000000004C
:10002000000000000000000000000000CF110008E8
:10003000DB11000800000000E7110008F3110008C0
:10004000DD160008DD160008DD160008DD160008C4
:10005000DD160008DD160008DD160008DD160008B4
:10006000DD160008DD160008DD160008DD160008A4
:10007000DD160008DD160008DD160008DD16000894
:10008000DD160008DD160008DD160008DD16000884
:10009000DD160008DD160008DD160008DD16000874
:1000A000DD160008DD160008DD160008DD16000864
:1000B00001120008DD160008DD1600081512000800
:1000C00029120008DD160008DD160008DD160008FC
:1000D000DD160008DD160008DD160008DD16000834
:1000E000DD160008DD160008DD160008000000001F
:1000F0000000000000000000000000000000000000
:0C01000000000000000000005FF808F1A3
:10010C0010B5054C237833B9044B13B10448AFF345
:10011C0000800123237010BD880000200000000027
:10012C00805A000808B5034B1BB103490348AFF3D1
:10013C00008008BD000000008C000020805A0008E0
:10014C0080B582B000AF00237B6074E03E4A7B68D0
:10015C00134419783D4A7B6813440A461A703C4A8A
:10016C007B6813441978384A7B6813440A461A7022
:10017C007B68022B1BD07B68022B22DC7B68002B5C
:10018C0003D07B68012B09D01BE00121314801F021
:10019C003FFE03461A462E4B1A7013E002212D48DF
:1001AC0001F036FE03461A46294B5A700AE04FF40A
:1001BC000051294801F02CFE03461A46244B9A7034
:1001CC0000E000BF214A7B6813441A781E497B6803
:1001DC000B441B789A422BD11B4A7B6813441A7828
:1001EC001B497B680B441B789A4221D11B4A7B68C4
:1001FC0013441A7816497B680B441B789A4217D023
:10020C00134A7B6813441978144A7B6813440A46D2
:10021C001A700F4A7B6813441B78002B08D10C4AC8
:10022C007B68134419780E4A7B6813440A461A708B
:10023C007B6801337B607B68022B87DD00BF00BFCE
:10024C000837BD4680BD00BFA8000020A4000020D8
:10025C00AC0000200008014000100140B00000205C
:10026C000000002080B483B000AF0346FB71FB7923
:10027C00022B01D900230BE0FB79084AD35C002B3D
:10028C0005D1FB79054A0121D154012300E000235B
:10029C0018460C37BD4680BC704700BF00000020DC
:1002AC0080B500AF4FF0FF3001F012F84FF0FF3087
:1002BC0000F0FAFF00F0F3FC4FF0FF3001F030F8E3
:1002CC00052001F019F800BF80BD000080B500AF1B
:1002DC00B84B1B68102B00F01381102B00F3AE8170
:1002EC000E2B03D00F2B00F08680A7E1B24B1B68BE
:1002FC00632B02DDB04B00221A600021002000F0BD
:10030C00D8FCAE4800F0B6FC0921002000F0D1FC6E
:10031C00A94B1B68184600F0EFFCA94B1B68012B7E
:10032C003ED1192000F0E8FFA64B1B68002B02D031
:10033C00012B06D035E0A34B01221A6001F06EF9B7
:10034C002FE0A04B00221A60012280219E4801F070
:10035C0076FD012240219D4801F071FD01224FF4F0
:10036C0080719B4801F06BFD01224FF4007198489D
:10037C0001F065FD01221021944801F060FD01227D
:10038C004FF48061914801F05AFD012208218F48F9
:10039C0001F055FD012220218C4801F050FD00E0B8
:1003AC0000BF0020FFF75EFF0346002B07D019208B
:1003BC0000F0A2FF00F073FC7E4B0F221A600120AC
:1003CC00FFF750FF0346002B06D000F068FC7A4B79
:1003DC001B680133784A13600220FFF743FF034682
:1003EC00002B00F02D81744B1B687A4A1360724B02
:1003FC0000221A6024E1784B1B68632B02DD764BDC
:10040C0000221A600021002000F053FC734800F019
:10041C0031FC0B21002000F04CFC6F4B1B68184684
:10042C0000F06AFC664B1B68012B3ED1192000F0D2
:10043C0063FF644B1B68002B02D0012B06D035E008
:10044C00604B01221A6001F0E9F82FE05D4B0022AD
:10045C001A60012280215C4801F0F1FC002240214D
:10046C005A4801F0ECFC01224FF48071584801F01D
:10047C00E6FC00224FF40071554801F0E0FC01222B
:10048C001021524801F0DBFC00224FF480614F48F0
:10049C0001F0D5FC012208214C4801F0D0FC0022CF
:1004AC0020214A4801F0CBFC00E000BF0020FFF700
:1004BC00D9FE0346002B07D0192000F01DFF00F0D9
:1004CC00EEFB3C4B10221A600120FFF7CBFE0346DB
:1004DC00002B06D000F0E3FB3F4B1B6801333E4A78
:1004EC0013600220FFF7BEFE0346002B00F0AA802B
:1004FC00394B1B68374A5360374B00221A60A1E016
:10050C00374B1B68632B02DD354B00221A60002130
:10051C00002000F0CEFB334800F0ACFB0B21002098
:10052C0000F0C7FB2E4B1B68184600F0E5FB244B74
:10053C001B68012B58D1192000F0DEFE214B1B68E3
:10054C00002B02D0012B06D04FE01E4B01221A606B
:10055C0001F064F849E01B4B00221A600022802154
:10056C00194801F06CFC01224021184801F067FC8D
:10057C0000224FF48071164801F061FC01224FF407
:10058C000071134801F05BFC002210210F4801F0B0
:10059C0056FC01224FF480610C4801F050FC002203
:1005AC0008210A4801F04BFC01222021074801F0E8
:1005BC0046FC1AE004000020B4000020985A000801
:1005CC00D8000020C000002000100140000C0140A9
:1005DC00000801400C000020B8000020A45A0008BC
:1005EC00BC000020B05A000800BF0020FFF73AFE04
:1005FC000346002B07D000F052FB154B01221A606A
:10060C00144B01221A600120FFF72CFE0346002B2D
:10061C0006D000F044FB104B1B6801330E4A1360EC
:10062C000220FFF71FFE0346002B0DD00A4B1B6860
:10063C000A4A9360084B00221A6005E000BF04E0F0
:10064C0000BF02E000BF00E000BF00BF80BD00BFE4
:10065C000400002008000020BC0000200C0000203A
:10066C0080B500AFA94B1B68013B032B00F21A812C
:10067C0001A252F823F000BF95060008DB06000823
:10068C0079070008150800084FF0FF3000F034FE21
:10069C0000F094FF00F0C2FF9C4B02221A609C4BAE
:1006AC001B68642202FB03F3184600F011FE642061
:1006BC0000F036FE964B1B68964A1360944B5B68B1
:1006CC00954A1360924B9B68944A1360F1E0914BEE
:1006DC001B68002B03DC8E4B1B688E4A13601221A7
:1006EC00132000F0AFFE0021002000F0E2FA8C484D
:1006FC0000F0C0FA0721002000F0DBFA854B1B68E4
:10070C00184600F0F9FA874B1B68012B07D16420BF
:10071C0000F006FE7F4B1B68013B7E4A1360824B48
:10072C001B68002B0FD000F0BAFA642000F0F8FD23
:10073C00764B03221A60764B5B68642202FB03F350
:10074C00184600F0C5FD0020FFF78CFD0346002B7A
:10075C0000F0AA8000F0A3FA6C4B0E221A60734BC7
:10076C004FF0FF321A60FFF79BFD9DE06A4B1B6850
:10077C00002B03DC664B5B68674A13601221142064
:10078C0000F060FE0021002000F093FA684800F0B1
:10079C0071FA0721002000F08CFA5F4B1B68184699
:1007AC0000F0AAFA5F4B1B68012B07D1642000F004
:1007BC00B7FD594B1B68013B574A13605A4B1B68DA
:1007CC00002B0FD0642000F0ABFD00F068FA4F4B0B
:1007DC0004221A604E4B9B68642202FB03F31846FA
:1007EC0000F076FD0020FFF73DFD0346002B5DD0A9
:1007FC0000F055FA454B0E221A604C4B4FF0FF326D
:10080C001A60FFF74DFD51E0444B1B68002B03DCD5
:10081C003F4B9B68414A13601221152000F012FED9
:10082C000021002000F045FA424800F023FA07218D
:10083C00002000F03EFA394B1B68184600F05CFAB9
:10084C00384B1B68012B07D1642000F069FD334B3A
:10085C001B68013B314A1360334B1B68002B0FD0D4
:10086C00642000F05DFD00F01AFA284B02221A6099
:10087C00274B1B68642202FB03F3184600F028FD8B
:10088C000020FFF7EFFC0346002B11D000F007FA15
:10089C001E4B0E221A60254B4FF0FF321A60FFF7E9
:1008AC00FFFC05E000BF04E000BF02E000BF00E079
:1008BC0000BF1E4B1B68013B032B00F22E8101A2D3
:1008CC0052F823F0E108000851090008EF0900086C
:1008DC008B0A0008154B03221A600D4B5B686422CF
:1008EC0002FB03F3184600F0DFFC094B1B68124AAD
:1008FC001360074B5B68114A1360054B9B68104AE9
:10090C001360642000F020FD0EE100BF0400002005
:10091C000C00002014010020100100200C0100200C
:10092C00C05A0008DC000020D00000200800002085
:10093C00C85A0008D05A0008000100200801002005
:10094C0004010020794B1B68002B03DC784B1B68DF
:10095C00764A13601121132000F074FD0021012050
:10096C0000F0A7F9734800F085F90721012000F089
:10097C00A0F96E4B1B68184600F0BEF96E4B1B6855
:10098C00012B07D1642000F0DFFC684B1B68013B96
:10099C00664A1360694B1B68002B0FD0642000F073
:1009AC00D3FC00F07CF9664B03221A60604B5B6849
:1009BC00642202FB03F3184600F076FC0020FFF7DC
:1009CC0051FC0346002B00F0AA8000F068F95D4B47
:1009DC000E221A605A4B4FF0FF321A60FFF760FC80
:1009EC009DE0594B1B68002B03DC514B5B68564A4E
:1009FC0013601121142000F025FD0021012000F0CE
:100A0C0058F9524800F036F90721012000F051F94D
:100A1C004D4B1B68184600F06FF9474B1B68012BB8
:100A2C0007D1642000F090FC474B1B68013B464A01
:100A3C001360424B1B68002B0FD0642000F084FC29
:100A4C0000F02DF93E4B04221A60394B9B6864224E
:100A5C0002FB03F3184600F027FC0020FFF702FC12
:100A6C000346002B5DD000F01AF9354B4FF0FF32E6
:100A7C001A60344B0E221A60FFF712FC51E0344B13
:100A8C001B68002B03DC2A4B9B68314A1360112135
:100A9C00152000F0D7FC0021012000F00AF92D48A8
:100AAC0000F0E8F80721012000F003F9284B1B683F
:100ABC00184600F021F9204B1B68012B07D164204C
:100ACC0000F042FC224B1B68013B214A13601B4B7C
:100ADC001B68002B0FD0642000F036FC00F0DFF810
:100AEC00174B02221A60124B1B68642202FB03F3A1
:100AFC00184600F0D9FB0020FFF7B4FB0346002B8F
:100B0C0011D000F0CCF80E4B4FF0FF321A600D4BA9
:100B1C000E221A60FFF7C4FB05E000BF04E000BF23
:100B2C0002E000BF00E000BF00BF80BD000100205C
:100B3C000C000020C05A0008E0000020D400002067
:100B4C00080000200400002008010020C85A0008FA
:100B5C0004010020D05A000880B586B002AF0346CD
:100B6C00FB71FB7923F00F03FB73FB791B01BB7348
:100B7C00FB7B43F00C03DBB23B72FB7B43F00803C3
:100B8C00DBB27B72BB7B43F00C03DBB2BB72BB7B77
:100B9C0043F00803DBB2FB7207F1080264230093F5
:100BAC0004234221034801F0BBFA00BF1037BD46B5
:100BBC0080BD00BF1801002080B586B002AF03468F
:100BCC00FB71FB7923F00F03FB73FB791B01BB73E8
:100BDC00FB7B43F00D03DBB23B72FB7B43F0090361
:100BEC00DBB27B72BB7B43F00D03DBB2BB72BB7B16
:100BFC0043F00903DBB2FB7207F108026423009394
:100C0C0004234221034801F08BFA00BF1037BD4684
:100C1C0080BD00BF1801002080B500AF3320FFF766
:100C2C009BFF3220FFF798FF322000F0B5FD282003
:100C3C00FFF792FF322000F0AFFD0120FFF78CFF91
:100C4C00322000F0A9FD0620FFF786FF322000F0CD
:100C5C00A3FD0C20FFF780FF322000F09DFD022049
:100C6C00FFF77AFF322000F097FD8020FFF774FF2A
:100C7C0000BF80BD80B582B000AF786006E07B68B5
:100C8C005A1C7A601B781846FFF796FF7B681B7816
:100C9C00002BF4D100BF00BF0837BD4680BD80B526
:100CAC0000AF0120FFF758FF322000F075FD00BFA8
:100CBC0080BD80B584B000AF786039607B68002B54
:100CCC0008D17B68DAB23B68DBB21344DBB2803B01
:100CDC00FB7308E03B68DBB24033DBB25BB263F022
:100CEC007F035BB2FB73FB7B1846FFF735FF00BF3E
:100CFC001037BD4680BD000080B584B000AF786071
:100D0C0007F10C037A680649184604F079FA07F1E2
:100D1C000C031846FFF7AEFF00BF1037BD4680BD71
:100D2C00DC5A000880B400AF054B1B68054A136001
:100D3C00034B5B68034A536000BFBD4680BC7047E1
:100D4C000C000020C400002080B500AF00F0C2FCF5
:100D5C0000F016F800F07EF800F0C8F800F04CF83F
:100D6C00064803F079FEFFF757FFFFF7DBFFFFF7AD
:100D7C0096FFFFF775FCFFF7A9FAFAE76C01002064
:100D8C0080B590B000AF07F1180328220021184657
:100D9C0004F02EFA3B1D00221A605A609A60DA6049
:100DAC001A610223BB610123BB621023FB62002387
:100DBC007B6307F11803184603F004FA0346002B73
:100DCC0001D000F034F90F237B600023BB600023BB
:100DDC00FB6000233B6100237B613B1D0021184617
:100DEC0003F070FC0346002B01D000F020F900BF8B
:100DFC004037BD4680BD000080B500AF124B134A92
:100E0C001A60114B124A5A600F4B00229A600E4B1B
:100E1C000022DA600C4B4FF480421A610A4B00221C
:100E2C005A61094B00229A61074B0022DA61064B8A
:100E3C0000221A62044801F01BF80346002B01D073
:100E4C0000F0F5F800BF80BD1801002000540040F0
:100E5C00A086010080B586B000AF07F10803002220
:100E6C001A605A609A60DA603B4600221A605A6037
:100E7C001D4B4FF080421A601B4B41F63F725A607B
:100E8C00194B00229A60184B0922DA60164B00228B
:100E9C001A61154B00229A61134803F08DFD03462D
:100EAC00002B01D000F0C3F84FF48053BB6007F166
:100EBC00080319460C4803F011FF0346002B01D020
:100ECC0000F0B5F800233B6000237B603B461946DD
:100EDC00054804F0F3F80346002B01D000F0A7F806
:100EEC0000BF1837BD4680BD6C01002080B588B0AE
:100EFC0000AF07F1100300221A605A609A60DA60A2
:100F0C003E4B9B693D4A43F0100393613B4B9B69FD
:100F1C0003F01003FB60FB68384B9B69374A43F0C6
:100F2C0004039361354B9B6903F00403BB60BB68FE
:100F3C00324B9B69314A43F0080393612F4B9B69F9
:100F4C0003F008037B607B6800224FF448712C4847
:100F5C0000F075FF00224FF48F612A4800F06FFFFC
:100F6C0000228021284800F06AFF4FF400533B61B7
:100F7C0000237B610123BB6107F110031946224852
:100F8C0000F0C2FD03233B6100237B610123BB61A5
:100F9C0007F1100319461A4800F0B6FD4FF44873D8
:100FAC003B6101237B610023BB610223FB6107F1E1
:100FBC0010031946124800F0A7FD4FF48F633B61F4
:100FCC0001237B610023BB610223FB6107F110034A
:100FDC0019460C4800F098FD80233B6101237B618E
:100FEC000023BB610223FB6107F11003194606487D
:100FFC0000F08AFD00BF2037BD4680BD00100240C6
:10100C0000080140000C01400010014080B582B086
:10101C0000AF78607B681B68B3F1804F03D100F0A0
:10102C00A7F9FFF78DF800BF0837BD4680BD80B427
:10103C0000AF72B600BFFEE780B485B000AF154BB1
:10104C009B69144A43F001039361124B9B6903F0B3
:10105C000103BB60BB680F4BDB690E4A43F0805346
:10106C00D3610C4BDB6903F080537B607B680A4BCC
:10107C005B68FB60FB6823F0E063FB60FB6843F09C
:10108C000073FB60044AFB68536000BF1437BD4615
:10109C0080BC7047001002400000014080B58AB04F
:1010AC0000AF786007F1140300221A605A609A604E
:1010BC00DA607B681B68254A934242D1244B9B69BA
:1010CC00234A43F008039361214B9B6903F0080307
:1010DC003B613B694FF440737B611223BB6103237B
:1010EC003B6207F1140319461A4800F00DFD1A4B28
:1010FC005B687B627B6A43F0E0637B627B6A43F0F4
:10110C0002037B62144A7B6A5360114BDB69104A01
:10111C0043F40013D3610E4BDB6903F40013FB6043
:10112C00FB68002200211F2000F031FC1F2000F082
:10113C004AFC00220021202000F029FC202000F095
:10114C0042FC00BF2837BD4680BD00BF00540040A4
:10115C0000100240000C01400000014080B584B03A
:10116C0000AF78607B681B68B3F1804F13D10C4BD8
:10117C00DB690B4A43F00103D361094BDB6903F0D4
:10118C000103FB60FB68002200211C2000F0FFFB28
:10119C001C2000F018FC00BF1037BD4680BD00BFFE
:1011AC000010024080B400AFFEE780B400AFFEE751
:1011BC0080B400AFFEE780B400AFFEE780B400AFB0
:1011CC00FEE780B400AF00BFBD4680BC704780B462
:1011DC0000AF00BFBD4680BC704780B400AF00BFFD
:1011EC00BD4680BC704780B500AF00F0B9FA00BFB7
:1011FC0080BD000080B500AF024803F07FFC00BF4B
:10120C0080BD00BF6C01002080B500AF024801F02A
:10121C0085F800BF80BD00BF1801002080B500AF6D
:10122C00024801F0ECF900BF80BD00BF180100209E
:10123C0080B586B000AF7860144A154BD31A7B6129
:10124C007B693B61134B1B68002B02D1114B124A7B
:10125C001A60104B1A687B6813443A699A4207D299
:10126C0003F09CFF03460C221A604FF0FF3309E099
:10127C00084B1B68FB60074B1A687B681344054AD4
:10128C001360FB6818461837BD4680BD005000201F
:10129C0000040000CC000020C801002080B400AF86
:1012AC0000BFBD4680BC704780B483B000AF78608F
:1012BC00054B00221A60054A7B68136000BF0C378F
:1012CC00BD4680BC704700BFD4000020E800002061
:1012DC0080B483B000AF7860054B00221A60054AD9
:1012EC007B68136000BF0C37BD4680BC704700BFE5
:1012FC00D0000020E400002080B483B000AF786000
:10130C00054B00221A60054A7B68136000BF0C373E
:10131C00BD4680BC704700BFD8000020EC00002008
:10132C0080B483B000AF7860054B00221A60054A88
:10133C007B68136000BF0C37BD4680BC704700BF94
:10134C00DC000020F000002080B483B000AF786097
:10135C00054B00221A60054A7B68136000BF0C37EE
:10136C00BD4680BC704700BFE0000020F4000020A8
:10137C0080B400AF294B1B68002B0BDD274B1B687F
:10138C00013B264A1360254B1B68002B02DC244BC7
:10139C0001221A60234B1B68002B0BDD214B1B68B1
:1013AC00013B204A13601F4B1B68002B02DC1E4BB9
:1013BC0001221A601D4B1B68002B0BDD1B4B1B689D
:1013CC00013B1A4A1360194B1B68002B02DC184BAB
:1013DC0001221A60174B1B68002B0BDD154B1B6889
:1013EC00013B144A1360134B1B68002B02DC124B9D
:1013FC0001221A60114B1B68002B0BDD0F4B1B6875
:10140C00013B0E4A13600D4B1B68002B02DC0C4B8E
:10141C0001221A6000BFBD4680BC7047F40000205A
:10142C00E0000020E8000020D4000020E4000020B0
:10143C00D0000020EC000020D8000020F00000209C
:10144C00DC00002080B582B000AF786039603B686A
:10145C00112B03D03B68122B54D0A4E07B68152BC6
:10146C0037D07B68152B4BDC7B68132B03D07B6848
:10147C00142B17D044E0012280214D4800F0DFFCF2
:10148C00012240214B4800F0DAFC01224FF480711C
:10149C00494800F0D4FC01224FF40071464800F09A
:1014AC00CEFC2EE001228021414800F0C8FC002235
:1014BC004021404800F0C3FC01224FF480713E48AB
:1014CC0000F0BDFC00224FF400713B4800F0B7FC6B
:1014DC0017E000228021364800F0B1FC01224021A7
:1014EC00344800F0ACFC00224FF48071324800F01C
:1014FC00A6FC01224FF400712F4800F0A0FC00E084
:10150C0000BF50E07B68152B35D07B68152B48DC71
:10151C007B68132B03D07B68142B16D041E001227F
:10152C001021244800F08BFC01224FF480612148EB
:10153C0000F085FC012208211E4800F080FC0122ED
:10154C0020211C4800F07BFC2CE0012210211948C2
:10155C0000F075FC00224FF48061164800F06FFC1F
:10156C0001220821134800F06AFC002220211148B6
:10157C0000F065FC16E0002210210E4800F05FFC24
:10158C0001224FF480610B4800F059FC0022082125
:10159C00084800F054FC01222021064800F04FFCC2
:1015AC0000E000BF00BF00BF0837BD4680BD00BFD4
:1015BC0000100140000C01400008014080B400AF55
:1015CC00154B1A68144B9968134B5B680B44D31A70
:1015DC00002B0CDD104B5A680F4B19680E4B98689A
:1015EC000D4B5B680344CB1A13440B4A53600A4BF4
:1015FC001A68094B9968084B5B680B44D31A002B8B
:10160C0006DA054B9A68044B5B681344024A136074
:10161C0000BFBD4680BC70470C00002080B500AFF9
:10162C0000224021154800F00AFC002280211448B9
:10163C0000F005FC00224FF40071124800F0FFFB93
:10164C0000224FF480710F4800F0F9FB00224FF498
:10165C0080610A4800F0F3FB00221021074800F0DB
:10166C00EEFB00222021054800F0E9FB00220821B6
:10167C00024800F0E4FB00BF80BD00BF000C01403D
:10168C000010014000080140FFF708FE0B480C4910
:10169C000C4A002302E0D458C4500433C4188C42C2
:1016AC00F9D3094A094C002301E013600432A24229
:1016BC00FBD303F079FDFFF747FB704700000020D8
:1016CC0088000020645B000888000020C80100200E
:1016DC00FEE7000080B500AF084B1B68074A43F0DB
:1016EC0010031360032000F047F90F2000F008F8F6
:1016FC00FFF7A2FC0023184680BD00BF002002406B
:10170C0080B582B000AF7860124B1A68124B1B7810
:10171C0019464FF47A73B3FBF1F3B2FBF3F31846AB
:10172C0000F05FF90346002B01D001230EE07B682B
:10173C000F2B0AD8002279684FF0FF3000F027F900
:10174C00064A7B681360002300E001231846083723
:10175C00BD4680BD18000020200000201C00002089
:10176C0080B400AF054B1B781A46054B1B6813441D
:10177C00034A136000BFBD4680BC704720000020A8
:10178C00B401002080B400AF024B1B681846BD4664
:10179C0080BC7047B401002080B584B000AF786085
:1017AC00FFF7F0FFB8607B68FB60FB68B3F1FF3FAD
:1017BC0005D00A4B1B781A46FB681344FB6000BF2C
:1017CC00FFF7E0FF0246BB68D31AFA689A42F7D8D3
:1017DC0000BF00BF1037BD4680BD00BF20000020F9
:1017EC0080B485B000AF78607B6803F00703FB60C2
:1017FC000C4BDB68BB60BA684FF6FF031340BB6051
:10180C00FB681A02BB68134343F0BF6343F4003315
:10181C00BB60044ABB68D36000BF1437BD4680BCB4
:10182C00704700BF00ED00E080B400AF044BDB68F4
:10183C001B0A03F007031846BD4680BC704700BF67
:10184C0000ED00E080B483B000AF0346FB7197F964
:10185C000730002B0BDBFB7903F01F02064997F9CD
:10186C0007305B09012000FA02F241F8232000BF87
:10187C000C37BD4680BC704700E100E080B483B0FB
:10188C0000AF03463960FB7197F90730002B0ADB78
:10189C003B68DAB20C4997F907301201D2B20B440B
:1018AC0083F800230AE03B68DAB20849FB7903F0BD
:1018BC000F03043B1201D2B20B441A7600BF0C3753
:1018CC00BD4680BC704700BF00E100E000ED00E0C9
:1018DC0080B489B000AFF860B9607A60FB6803F03F
:1018EC000703FB61FB69C3F10703042B28BF042327
:1018FC00BB61FB690433062B02D9FB69033B00E097
:10190C0000237B614FF0FF32BB6902FA03F3DA4329
:10191C00BB681A407B699A404FF0FF317B6901FA32
:10192C0003F3D9437B680B40134318462437BD4659
:10193C0080BC704780B582B000AF78607B68013B9B
:10194C00B3F1807F01D301230FE00A4A7B68013B8E
:10195C0053600F214FF0FF30FFF790FF054B002233
:10196C009A60044B07221A60002318460837BD46BC
:10197C0080BD00BF10E000E080B582B000AF7860A1
:10198C007868FFF72DFF00BF0837BD4680BD80B5D6
:10199C0086B000AF0346B9607A60FB7300237B61AD
:1019AC00FFF742FF78617A68B9687869FFF790FFB2
:1019BC00024697F90F3011461846FFF75FFF00BF3C
:1019CC001837BD4680BD80B582B000AF0346FB71B1
:1019DC0097F907301846FFF735FF00BF0837BD46AB
:1019EC0080BD80B582B000AF78607868FFF7A2FF49
:1019FC00034618460837BD4680BD000080B584B04C
:101A0C0000AF78600023FB737B6893F82130DBB266
:101A1C00022B05D07B6804229A630123FB7351E0EF
:101A2C007B681B681A687B681B6822F00E021A60C0
:101A3C007B681B681A687B681B6822F001021A60BD
:101A4C007B681B68224A934229D07B681B68214A19
:101A5C00934222D07B681B681F4A93421AD07B6842
:101A6C001B681E4A934212D07B681B681C4A934227
:101A7C000AD07B681B681B4A934202D14FF4801337
:101A8C000EE04FF080730BE04FF4803308E04FF41E
:101A9C00805305E04FF4807302E0102300E0012333
:101AAC00114A53607B68012283F821207B68002255
:101ABC0083F820207B685B6B002B03D07B685B6B0F
:101ACC0078689847FB7B18461037BD4680BD00BF31
:101ADC00080002401C00024030000240440002405A
:101AEC00580002406C0002400000024080B483B0F9
:101AFC0000AF78607B6893F82130DBB218460C3766
:101B0C00BD4680BC7047000080B48BB000AF7860DD
:101B1C00396000237B6200233B6269E101227B6A0E
:101B2C0002FA03F3FB613B681B68FA691340BB6163
:101B3C00BA69FB699A4240F058813B685B689A4AE3
:101B4C0093425ED0984A934275D8984A934258D0A3
:101B5C00964A93426FD8964A934252D0944A9342F3
:101B6C0069D8944A93424CD0924A934263D8924A91
:101B7C00934246D0904A93425DD8122B2AD8122B0E
:101B8C0059D801A252F823F00F1C0008E91B0008D9
:101B9C00FB1B00083D1C0008431C0008431C0008EC
:101BAC00431C0008431C0008431C0008431C00088D
:101BBC00431C0008431C0008431C0008431C00087D
:101BCC00431C0008431C0008431C0008F11B0008C0
:101BDC00051C0008794A934213D02CE03B68DB6863
:101BEC003B6229E03B68DB6804333B6224E03B68E2
:101BFC00DB6808333B621FE03B68DB680C333B62FD
:101C0C001AE03B689B68002B02D104233B6213E073
:101C1C003B689B68012B05D108233B627B68FA6902
:101C2C001A6109E008233B627B68FA695A6103E098
:101C3C0000233B6200E000BFBB69FF2B01D87B682F
:101C4C0001E07B6804337B61BB69FF2B02D87B6AA4
:101C5C009B0002E07B6A083B9B003B617B691A6836
:101C6C000F213B6901FA03F3DB431A40396A3B69E4
:101C7C0001FA03F31A437B691A603B685B6803F053
:101C8C008053002B00F0B1804D4B9B694C4A43F0C4
:101C9C00010393614A4B9B6903F00103BB60BB6872
:101CAC00484A7B6A9B08023352F82330FB607B6AFC
:101CBC0003F003039B000F2202FA03F3DB43FA68E1
:101CCC001340FB607B68404A934213D07B683F4AC9
:101CDC0093420DD07B683E4A934207D07B683D4AC5
:101CEC00934201D1032306E0042304E0022302E023
:101CFC00012300E000237A6A02F003029200934071
:101D0C00FA681343FB602F497B6A9B080233FA681D
:101D1C0041F823203B685B6803F48013002B06D04A
:101D2C002D4B9A682C49BB6913438B6006E02A4BF8
:101D3C009A68BB69DB43284913408B603B685B683E
:101D4C0003F40013002B06D0234BDA682249BB693D
:101D5C001343CB6006E0204BDA68BB69DB431E49BA
:101D6C001340CB603B685B6803F40033002B06D058
:101D7C00194B5A681849BB6913434B6006E0164B64
:101D8C005A68BB69DB43144913404B603B685B6882
:101D9C0003F48033002B21D00F4B1A680E49BB691A
:101DAC0013430B6021E000BF000032100000311023
:101DBC000000221000002110000012100000111071
:101DCC00001002400000014000080140000C0140DE
:101DDC000010014000140140000401400B4B1A6834
:101DEC00BB69DB43094913400B607B6A01337B629F
:101DFC003B681A687B6A22FA03F3002B7FF48EAEE1
:101E0C0000BF00BF2C37BD4680BC704700040140AA
:101E1C0080B485B000AF78600B467B807B689A6895
:101E2C007B881340002B02D00123FB7301E00023BD
:101E3C00FB73FB7B18461437BD4680BC704780B4DF
:101E4C0083B000AF78600B467B8013467B707B7849
:101E5C00002B03D07A887B681A6103E07B881A0414
:101E6C007B681A6100BF0C37BD4680BC7047000010
:101E7C0080B584B000AF78607B68002B01D1012362
:101E8C002BE17B6893F83D30DBB2002B06D17B68ED
:101E9C00002283F83C207868FFF700F97B68242245
:101EAC0083F83D207B681B681A687B681B6822F0EE
:101EBC0001021A607B681B681A687B681B6842F415
:101ECC0000421A607B681B681A687B681B6822F4E6
:101EDC0000421A6002F03EFDF8607B685B68814A44
:101EEC00934207D8FB68804A934294BF0123002396
:101EFC00DBB206E0FB687D4A934294BF01230023CA
:101F0C00DBB2002B01D00123E7E0FB68784AA2FB8F
:101F1C0003239B0CBB607B681B685B6823F03F0151
:101F2C007B681B68BA680A435A607B681B681B6A2B
:101F3C0023F03F017B685B686A4A934202D8BB6816
:101F4C00013309E0BB684FF4967202FB03F3694A54
:101F5C00A2FB03239B0901337A6812680B431362BB
:101F6C007B681B68DB6923F44F4222F0FF027B681D
:101F7C005B685C498B4219D8FB68591E7B685B68AF
:101F8C005B00B1FBF3F3591C40F6FC730B40002BC8
:101F9C000AD0FB68591E7B685B685B00B1FBF3F3EE
:101FAC000133C3F30B0351E004234FE07B689B68C0
:101FBC00002B11D1FB68581E7B6859680B465B00DF
:101FCC000B44B0FBF3F30133C3F30B03002B0CBF37
:101FDC0001230023DBB212E0FB68581E7B685968B2
:101FEC000B469B000B4499000B44B0FBF3F30133FD
:101FFC00C3F30B03002B0CBF01230023DBB2002B1C
:10200C0001D0012322E07B689B68002B0ED1FB687A
:10201C00581E7B6859680B465B000B44B0FBF3F30E
:10202C000133C3F30B0343F400430FE0FB68581E6A
:10203C007B6859680B469B000B4499000B44B0FB22
:10204C00F3F30133C3F30B0343F44043796809689A
:10205C001343CB617B681B681B6823F0C0017B6852
:10206C00DA697B681B6A1A437B681B680A431A602F
:10207C007B681B689B6823F4034323F0FF037A6897
:10208C0011697A68D26811437A6812680B439360BD
:10209C007B681B68DB6823F0FF017B685A697B68EF
:1020AC009B691A437B681B680A43DA607B681B6870
:1020BC001A687B681B6842F001021A607B68002278
:1020CC001A647B68202283F83D207B6800221A6307
:1020DC007B68002283F83E20002318461037BD464B
:1020EC0080BD00BFA08601007F841E00FF083D005C
:1020FC0083DE1B43D34D621080B483B000AF786095
:10210C007B681B685B6903F08003802B03D17B68C1
:10211C001B6800221A6100BF0C37BD4680BC70479B
:10212C0080B588B002AFF8607A601A460B467B81A6
:10213C0013463B81FFF726FB7861FB6893F83D3033
:10214C00DBB2202B40F0E0807B6900931923012245
:10215C007049F86801F012FE0346002B01D00223EF
:10216C00D3E0FB6893F83C30012B01D10223CCE087
:10217C00FB68012283F83C20FB681B681B6803F09A
:10218C000103012B07D0FB681B681A68FB681B68EE
:10219C0042F001021A60FB681B681A68FB681B6836
:1021AC0022F400621A60FB68212283F83D20FB6850
:1021BC00102283F83E20FB6800221A64FB687A68C0
:1021CC005A62FB683A895A85FB685B8D9AB2FB6848
:1021DC001A85FB68504ADA6279897B693A6AF86831
:1021EC0001F0A2FC0346002B01D001238DE000235B
:1021FC003B61FB681B685B693B61FB681B689B6907
:10220C003B613B6966E07A69396AF86801F0D0FE97
:10221C000346002B0DD0FB681B6C042B07D1FB680D
:10222C001B681A68FB681B6842F400721A60012371
:10223C006BE0FB685B6A1A78FB681B681A61FB68C9
:10224C005B6A5A1CFB685A62FB685B8D9BB2013B54
:10225C009AB2FB685A85FB681B8D013B9AB2FB68EE
:10226C001A85FB681B685B6903F00403042B1BD104
:10227C00FB681B8D002B17D0FB685B6A1A78FB6818
:10228C001B681A61FB685B6A5A1CFB685A62FB6824
:10229C005B8D9BB2013B9AB2FB685A85FB681B8D28
:1022AC00013B9AB2FB681A857A69396AF86801F0C1
:1022BC00C7FE0346002B0DD0FB681B6C042B07D10B
:1022CC00FB681B681A68FB681B6842F400721A6092
:1022DC0001231AE0FB681B8D002B94D1FB681B6853
:1022EC001A68FB681B6842F400721A60FB682022B3
:1022FC0083F83D20FB68002283F83E20FB68002217
:10230C0083F83C20002300E0022318461837BD4612
:10231C0080BD00BF020010000000FFFF80B588B038
:10232C0000AF78600023BB617B681B685B687B61D6
:10233C007B68DB6A3B617B6893F83E30FB737B68A0
:10234C0093F83D30BB73FB7B102B03D0FB7B402BF6
:10235C0040F0C1807B681B689B69BB617B681B6814
:10236C005B69FB61FB6903F00103002B0DD13B6939
:10237C00B3F52A0F03D03B69B3F12A4F01D10123E6
:10238C0000E00023012B00F03281FB6903F0010314
:10239C00002B0CD07B695B0A03F00103002B06D0E9
:1023AC00786801F0F5FE786800F099FD92E0FB6921
:1023BC00DB0803F00103002B09D07B695B0A03F0F7
:1023CC000103002B03D0786800F00EFE82E0FB695D
:1023DC005B0803F00103002B09D07B695B0A03F057
:1023EC000103002B03D0786800F027FE72E0BB6974
:1023FC009B0803F00103002B3BD07B681B685B68D8
:10240C0003F40063B3F5006F00F0F380FB69DB09A4
:10241C0003F00103002B0FD07B699B0A03F001032F
:10242C00002B09D0FB699B0803F00103002B03D19F
:10243C00786800F0F1F94DE0FB699B0803F00103AB
:10244C00002B00F0D6807B695B0A03F00103002BA4
:10245C0000F0CF80BB7B212B03D1786800F078FA99
:10246C00C7E0FB7B402B40F0C480786800F0E6FAB4
:10247C00BFE07B681B685B6803F40063B3F5006F17
:10248C0000F0B780FB699B0903F00103002B0FD010
:10249C007B699B0A03F00103002B09D0FB699B08A5
:1024AC0003F00103002B03D1786800F05FFB11E00F
:1024BC00FB699B0803F00103002B00F09A807B69F9
:1024CC005B0A03F00103002B00F09380786800F0A6
:1024DC0015FC8EE08DE07B681B6C002B04D07B68B8
:1024EC001B685B69FB6107E07B681B689B69BB61D0
:1024FC007B681B685B69FB61FB695B0803F001038C
:10250C00002B12D07B695B0A03F00103002B0CD06B
:10251C007B681B6C002B03D07B681B689B69BB61C1
:10252C00B969786800F0E0FF66E0FB691B0903F00D
:10253C000103002B09D07B695B0A03F00103002B1C
:10254C0003D0786801F01AF856E0BB7B212B02D03F
:10255C00BB7B292B25D1FB69DB0903F00103002B85
:10256C000FD07B699B0A03F00103002B09D0FB6998
:10257C009B0803F00103002B03D1786800F0F8FEF0
:10258C0039E0FB699B0803F00103002B33D07B6916
:10259C005B0A03F00103002B2DD0786800F025FFB7
:1025AC0029E0FB699B0903F00103002B0FD07B6929
:1025BC009B0A03F00103002B09D0FB699B0803F075
:1025CC000103002B03D1786800F02FFF14E0FB69A6
:1025DC009B0803F00103002B0ED07B695B0A03F010
:1025EC000103002B08D0786800F05DFF04E000BF09
:1025FC0002E000BF00E000BF2037BD4680BD80B5C3
:10260C008AB000AF78607B681B685B693B627B6853
:10261C001B685B68FB6100237B627B6893F83E3030
:10262C00FB763B6A1B0A03F00103002B16D0FB69F7
:10263C001B0A03F00103002B10D07B6A43F001034B
:10264C007B627B681B686FF480725A617B681B68C5
:10265C001A687B681B6842F400421A603B6A5B0A8A
:10266C0003F00103002B0ED0FB691B0A03F00103DE
:10267C00002B08D07B6A43F002037B627B681B68EB
:10268C006FF400725A613B6A9B0A03F00103002B42
:10269C003FD0FB691B0A03F00103002B39D0FB7EF2
:1026AC00BB767B685B8D9BB27B617B6893F83D301E
:1026BC00FB747B681B6BFB60BB7E202B12D17B6990
:1026CC00002B0FD1FB7C212B08D0FB7C292B05D0B8
:1026DC00FB7C282B06D1FB68212B03D1786801F0F9
:1026EC007DF816E07B681B686FF480625A617B6A28
:1026FC0043F004037B62FB7E102B02D0FB7E402B4D
:10270C0007D17B681B681A687B681B6842F40072EF
:10271C001A603B6ADB0A03F00103002B0ED0FB6945
:10272C001B0A03F00103002B08D07B6A43F008035B
:10273C007B627B681B686FF400625A617B6A002BBA
:10274C0008D07B681A6C7B6A1A437B681A647868B9
:10275C0001F0B8F800BF2837BD4680BD80B483B007
:10276C0000AF786000BF0C37BD4680BC704780B4AA
:10277C0083B000AF786000BF0C37BD4680BC70479B
:10278C0080B483B000AF786000BF0C37BD4680BC0E
:10279C00704780B483B000AF786000BF0C37BD4683
:1027AC0080BC704780B483B000AF78600B46FB7080
:1027BC0013463B8000BF0C37BD4680BC704780B4CD
:1027CC0083B000AF786000BF0C37BD4680BC70474B
:1027DC0080B483B000AF786000BF0C37BD4680BCBE
:1027EC00704780B483B000AF786000BF0C37BD4633
:1027FC0080BC704780B483B000AF786000BF0C37EA
:10280C00BD4680BC704780B483B000AF786000BF19
:10281C000C37BD4680BC704780B584B000AF786083
:10282C007B6893F83D30FB737B6893F83E30BB7349
:10283C007B68DB6ABB607B681B8D002B50D1FB7BFC
:10284C00212B4DD1BB68082B1DD0BB68202B1AD077
:10285C00BB6813F5803F16D07B681B685A687B6891
:10286C001B6822F4E0625A607B6811221A637B6851
:10287C00002283F83E207B68202283F83D20786874
:10288C00FFF76CFF60E07B681B685A687B681B680D
:10289C0022F4E0625A607B681B681A687B681B68CC
:1028AC0042F400721A607B6800221A637B68202253
:1028BC0083F83D207B6893F83E30DBB2402B07D188
:1028CC007B68002283F83E207868FFF781FF3BE0AD
:1028DC007B68002283F83E207868FFF73FFF33E0E7
:1028EC00FB7B212B05D0BB7B402B2DD1FB7B222BE3
:1028FC002AD17B685B8D9BB2002B08D17B681B684F
:10290C005A687B681B6822F480625A601CE07B6802
:10291C0093F83E30DBB2402B03D1786800F08EF890
:10292C0012E07B685B6A1A787B681B681A617B68AB
:10293C005B6A5A1C7B685A627B685B8D9BB2013B5D
:10294C009AB27B685A85FFE700BF1037BD4680BD41
:10295C0080B584B000AF78607B68DB6AFB607B6815
:10296C0093F83D30DBB2212B64D17B685B8D9BB23D
:10297C00002B12D07B685B6A1A787B681B681A6123
:10298C007B685B6A5A1C7B685A627B685B8D9BB266
:10299C00013B9AB27B685A854CE0FB68082B1DD032
:1029AC00FB68202B1AD0FB6813F5803F16D07B6890
:1029BC001B685A687B681B6822F4E0625A607B686B
:1029CC0011221A637B68002283F83E207B68202248
:1029DC0083F83D207868FFF7C1FE2BE07B681B680D
:1029EC005A687B681B6822F4E0625A607B681B683B
:1029FC001A687B681B6842F400721A607B680022BC
:102A0C001A637B68202283F83D207B6893F83E3064
:102A1C00DBB2402B07D17B68002283F83E2078681C
:102A2C00FFF7D6FE06E07B68002283F83E2078682C
:102A3C00FFF794FE00BF1037BD4680BD80B584B053
:102A4C0000AF78607B6893F83D30FB737B681B6D3F
:102A5C00002B1DD17B68DB6C012B0BD17B689B6C35
:102A6C00DAB27B681B681A617B681B6D9A1C7B68E9
:102A7C001A6577E07B689B6C9BB21B12DAB27B68A1
:102A8C001B681A617B681B6D5A1C7B681A6569E0B0
:102A9C007B681B6D012B0BD17B689B6CDAB27B685E
:102AAC001B681A617B681B6D5A1C7B681A6559E0A0
:102ABC007B681B6D022B52D1FB7B222B0DD17B68CB
:102ACC001B681A687B681B6842F480721A607B680A
:102ADC001B6D5A1C7B681A6544E07B685B8D9BB24E
:102AEC00002B15D0FB7B212B12D17B685B6A1A78EB
:102AFC007B681B681A617B685B6A5A1C7B685A622C
:102B0C007B685B8D9BB2013B9AB27B685A8529E04E
:102B1C007B685B8D9BB2002B24D1FB7B212B21D1BD
:102B2C007B681B685A687B681B6822F4E0625A60F9
:102B3C007B681B681A687B681B6842F400721A6019
:102B4C007B6800221A637B68202283F83D207B6817
:102B5C00002283F83E207868FFF73AFE02E078689E
:102B6C00FFF7CAFA00BF1037BD4680BD80B584B0F0
:102B7C0000AF78607B6893F83D30DBB2222B40F0DD
:102B8C00B9807B68DB6AFB607B685B8D9BB2BB604A
:102B9C00BB68032B21D97B681B681A697B685B6A4D
:102BAC00D2B21A707B685B6A5A1C7B685A627B686B
:102BBC005B8D9BB2013B9AB27B685A857B685B8DBF
:102BCC009BB2032B40F096807B681B685A687B682D
:102BDC001B6822F480625A608CE07B68DB6A022BF3
:102BEC007FD0BB68012B02D0BB68002B79D17868F1
:102BFC0001F06EFA0346002B4CD17B681B681A68F7
:102C0C007B681B6822F480621A607B681B685A68B8
:102C1C007B681B6822F4E0625A607B681B681A6947
:102C2C007B685B6AD2B21A707B685B6A5A1C7B68E1
:102C3C005A627B685B8D9BB2013B9AB27B685A856A
:102C4C007B68202283F83D207B6893F83E30DBB212
:102C5C00402B0AD17B68002283F83E207B6800223F
:102C6C001A637868FFF7BDFD44E07B68002283F8A7
:102C7C003E20FB68082B02D0FB68202B03D17B681D
:102C8C0000221A6302E07B6812221A637868FFF74D
:102C9C006EFD2FE07B681B685A687B681B6822F40A
:102CAC00E0625A607B681B681A697B685B6AD2B207
:102CBC001A707B685B6A5A1C7B685A627B685B8DF6
:102CCC009BB2013B9AB27B685A857B68202283F8C1
:102CDC003D207B68002283F83E207868FFF78AFD50
:102CEC0008E07B681B685A687B681B6822F480626A
:102CFC005A60FFE700BF1037BD4680BD80B584B079
:102D0C0000AF78607B68DB6AFB607B685B8D9BB295
:102D1C00042B1BD17B681B685A687B681B6822F4E8
:102D2C0080625A607B681B681A697B685B6AD2B2E6
:102D3C001A707B685B6A5A1C7B685A627B685B8D75
:102D4C009BB2013B9AB27B685A85C4E07B685B8D71
:102D5C009BB2032B29D17B681B685A687B681B6864
:102D6C0022F480625A60FB68042B0AD0FB68022BA9
:102D7C0007D07B681B681A687B681B6822F480622A
:102D8C001A607B681B681A697B685B6AD2B21A701E
:102D9C007B685B6A5A1C7B685A627B685B8D9BB252
:102DAC00013B9AB27B685A8595E07B685B8D9BB240
:102DBC00022B7DD1FB68012B02D0FB68102B08D1B4
:102DCC007B681B681A687B681B6822F480621A6037
:102DDC0016E0FB68042B02D0FB68022B08D17B6841
:102DEC001B681A687B681B6842F480621A6007E0F3
:102DFC007B681B681A687B681B6842F400721A6057
:102E0C007B681B681A697B685B6AD2B21A707B6834
:102E1C005B6A5A1C7B685A627B685B8D9BB2013B78
:102E2C009AB27B685A857B681B681A697B685B6AF7
:102E3C00D2B21A707B685B6A5A1C7B685A627B68D8
:102E4C005B8D9BB2013B9AB27B685A857B681B6891
:102E5C005A687B681B6822F440725A607B68202297
:102E6C0083F83D207B6893F83E30DBB2402B0AD1CF
:102E7C007B68002283F83E207B6800221A63786806
:102E8C00FFF7AFFC27E07B68002283F83E20FB684D
:102E9C00082B02D0FB68202B03D17B6800221A631D
:102EAC0002E07B6812221A637868FFF760FC12E07C
:102EBC007B681B681A697B685B6AD2B21A707B6884
:102ECC005B6A5A1C7B685A627B685B8D9BB2013BC8
:102EDC009AB27B685A8500BF1037BD4680BD80B45E
:102EEC0083B000AF78607B6893F83E30DBB2402B48
:102EFC0017D17B681B6D002B09D17B685B6CDBB237
:102F0C001A467B681B6802F0FE021A6167E07B6858
:102F1C005B6CDBB243F00103DAB27B681B681A61AD
:102F2C005DE07B681B69B3F5804F33D17B6893F808
:102F3C003D30DBB2212B09D17B685B6CDBB21A46CE
:102F4C007B681B6802F0FE021A6108E07B685B6C10
:102F5C00DBB243F00103DAB27B681B681A617B6851
:102F6C005B6B002B04D07B685B6B9B6A002B08D1DE
:102F7C007B689B6B002B32D07B689B6B9B6A002B16
:102F8C002DD07B681B685A687B681B6842F4006212
:102F9C005A6024E07B681B6D002B0ED17B685B6C48
:102FAC009BB2DB11DBB203F00603DBB263F00F0361
:102FBC00DAB27B681B681A6111E07B681B6D012B10
:102FCC000DD17B685B6C9BB2DB11DBB203F00603AB
:102FDC00DBB263F00E03DAB27B681B681A6100BFC8
:102FEC000C37BD4680BC704780B483B000AF7860AE
:102FFC007B685B6CDAB27B681B681A617B685B6B05
:10300C00002B04D07B685B6B9B6A002B08D17B6820
:10301C009B6B002B0CD07B689B6B9B6A002B07D0A7
:10302C007B681B685A687B681B6842F400625A60B4
:10303C0000BF0C37BD4680BC704780B491B000AF68
:10304C0078607B6893F83E3087F83F307B68DB6AAA
:10305C00BB637B681B6B7B637B6893F83D30DBB297
:10306C00222B40F074817B681B6D002B0FD197F8DD
:10307C003F30402B0BD100233B637B681B685B69A3
:10308C003B637B681B689B693B633B6B6BE17B68B9
:10309C001B6D002B1DD17B681B69B3F5404F18D1FC
:1030AC000023FB627B681B685B69FB627B681B68A7
:1030BC009B69FB62FB6A7B681B681A687B681B68F0
:1030CC0042F480721A607B681B6D5A1C7B681A650F
:1030DC0049E17B685B8D9BB2002B13D10023BB6253
:1030EC007B681B685B69BB627B681B689B69BB6206
:1030FC00BB6A7B681B681A687B681B6842F40072A9
:10310C001A6020E17B685B8D9BB2012B40F08A80BA
:10311C00BB6B13F5803F37D17B681B681A687B68E3
:10312C001B6822F480621A607B681B685B6803F47E
:10313C000063B3F5006F13D17B681B681A687B685A
:10314C001B6822F480621A6000237B627B681B6818
:10315C005B697B627B681B689B697B627B6AF2E0C4
:10316C0000233B627B681B685B693B627B681B6866
:10317C009B693B623B6A7B681B681A687B681B68AF
:10318C0042F400721A60DEE0BB6B082B2ED0BB6BD6
:10319C00202B2BD07B6B122B02D1BB6B012B25D19F
:1031AC00BB6B042B0ED0BB6B022B0BD0BB6B102B51
:1031BC0008D07B681B681A687B681B6822F48062E5
:1031CC001A6007E07B681B681A687B681B6842F40E
:1031DC0080621A600023FB617B681B685B69FB6182
:1031EC007B681B689B69FB61FB69ACE07B681B68B7
:1031FC001A687B681B6822F480621A600023BB612A
:10320C007B681B685B69BB617B681B689B69BB61E6
:10321C00BB697B681B681A687B681B6842F4007288
:10322C001A6090E07B685B8D9BB2022B58D1BB6B14
:10323C00042B21D0BB6B022B1ED0BB6B102B1BD0D5
:10324C007B681B681A687B681B6842F400621A6012
:10325C0000237B617B681B685B697B617B681B68F7
:10326C009B697B617B697B681B681A687B681B6840
:10327C0022F480621A6012E07B681B681A687B6813
:10328C001B6842F480621A6000233B617B681B68F8
:10329C005B693B617B681B689B693B613B697B6835
:1032AC001B685B6803F40063B3F5006F4BD1BB6B19
:1032BC0013F5803F0BD0BB6B012B08D0BB6B082BDD
:1032CC0005D0BB6B102B02D0BB6B202B3BD17B688A
:1032DC001B685A687B681B6842F480525A6032E063
:1032EC007B681B681A687B681B6842F480621A60F2
:1032FC007B681B685B6803F40063B3F5006F17D140
:10330C00BB6B13F5803F0BD0BB6B012B08D0BB6B99
:10331C00082B05D0BB6B102B02D0BB6B202B07D11D
:10332C007B681B685A687B681B6842F480525A6041
:10333C000023FB607B681B685B69FB607B681B6818
:10334C009B69FB60FB687B6800221A650BE000231D
:10335C00BB607B681B685B69BB607B681B689B6997
:10336C00BB60BB68FFE700BF4437BD4680BC7047FD
:10337C0080B584B000AF78607B6893F83D30FB7308
:10338C007B685B8D9BB2002B2BD07B685B6A1A78B9
:10339C007B681B681A617B685B6A5A1C7B685A6283
:1033AC007B685B8D9BB2013B9AB27B685A857B68CC
:1033BC005B8D9BB2002B14D1FB7B292B11D17B682D
:1033CC001B685A687B681B6822F480625A607B68B1
:1033DC0021221A637B68282283F83D207868FFF746
:1033EC00CFF900BF1037BD4680BD80B483B000AFAD
:1033FC0078607B685B8D9BB2002B11D07B685B6A1D
:10340C001A787B681B681A617B685B6A5A1C7B683C
:10341C005A627B685B8D9BB2013B9AB27B685A8582
:10342C0000BF0C37BD4680BC704780B584B000AF80
:10343C0078607B6893F83D30FB737B685B8D9BB247
:10344C00002B2CD07B681B681A697B685B6AD2B234
:10345C001A707B685B6A5A1C7B685A627B685B8D4E
:10346C009BB2013B9AB27B685A857B685B8D9BB2A1
:10347C00002B14D1FB7B2A2B11D17B681B685A685B
:10348C007B681B6822F480625A607B6822221A6374
:10349C007B68282283F83D207868FFF77AF900BF13
:1034AC001037BD4680BD80B483B000AF78607B68B8
:1034BC005B8D9BB2002B12D07B681B681A697B68F2
:1034CC005B6AD2B21A707B685B6A5A1C7B685A6260
:1034DC007B685B8D9BB2013B9AB27B685A8500BFBF
:1034EC000C37BD4680BC704780B584B000AF7860A7
:1034FC0039600023FB737B6893F83D30DBB203F03B
:10350C002803282B27D17B681B685A687B681B68AB
:10351C0022F480625A603B689B0803F00103002B85
:10352C0001D10123FB733B68DB0903F00103002B82
:10353C0003D17B68DB68BB8102E07B689B69BB8144
:10354C007B68002283F83C20BA89FB7B194678689B
:10355C00FFF728F90EE00023BB607B681B685B69F2
:10356C00BB607B681B689B69BB60BB687B68002287
:10357C0083F83C2000BF1037BD4680BD80B584B0B9
:10358C0000AF78607B6893F83D30FB737B681B68F9
:10359C005A687B681B6822F4E0625A600023BB60A7
:1035AC007B681B685B69BB607B681B681A687B68FF
:1035BC001B6842F001021A60BB687B681B681A68C2
:1035CC007B681B6822F480621A607B681B685B68EE
:1035DC0003F40063B3F5006F72D1FB7B222B02D096
:1035EC00FB7B2A2B35D17B689B6B1B685B689AB283
:1035FC007B685A857B685B8D9BB2002B05D07B6802
:10360C001B6C43F004027B681A647B681B685A6865
:10361C007B681B6822F400625A607B689B6B1846BF
:10362C00FEF764FA0346012B49D07B689B6B694A11
:10363C005A637B689B6B1846FEF7E0F90346002B38
:10364C003DD07B689B6B5B6B7A68926B104698479E
:10365C0035E07B685B6B1B685B689AB27B685A854C
:10366C007B685B8D9BB2002B05D07B681B6C43F099
:10367C0004027B681A647B681B685A687B681B6849
:10368C0022F400625A607B685B6B1846FEF72EFAD8
:10369C000346012B14D07B685B6B4E4A5A637B68E4
:1036AC005B6B1846FEF7AAF90346002B08D07B6823
:1036BC005B6B5B6B7A68526B1046984700E000BFFF
:1036CC007B685B8D9BB2002B3ED07B681B685B6973
:1036DC0003F00403042B12D17B681B681A697B6806
:1036EC005B6AD2B21A707B685B6A5A1C7B685A623E
:1036FC007B685B8D9BB2013B9AB27B685A857B6879
:10370C001B685B6903F04003402B12D17B681B687C
:10371C001A697B685B6AD2B21A707B685B6A5A1C46
:10372C007B685A627B685B8D9BB2013B9AB27B686B
:10373C005A857B685B8D9BB2002B05D07B681B6C1C
:10374C0043F004027B681A647B681B6C002B03D06B
:10375C00786800F0B7F839E0FB7B2A2B09D17B683D
:10376C0000221A637B68282283F83D207868FFF7D3
:10377C0010F87B6893F83D30DBB2282B11D17B68B5
:10378C00154ADA627B6800221A637B68202283F870
:10379C003D207B68002283F83E207868FFF70FF805
:1037AC0014E07B681B6B222B02D0FB7B222B0DD1F0
:1037BC007B6800221A637B68202283F83D207B689B
:1037CC00002283F83E207868FEF7E3FF00BF103735
:1037DC00BD4680BD393C00080000FFFF80B584B0B9
:1037EC0000AF78607B6893F83D30FB737B68DB6AD5
:1037FC00BB60BB68082B02D0BB68202B29D1FB7B9C
:10380C00282B26D17B682E4ADA627B681B685A68A3
:10381C007B681B6822F4E0625A607B681B686FF45B
:10382C0080625A617B681B681A687B681B6822F48B
:10383C0080621A607B6800221A637B68202283F8FE
:10384C003D207B68002283F83E207868FEF7B7FFA6
:10385C0031E0FB7B212B29D17B68194ADA627B682A
:10386C0021221A637B68202283F83D207B6800228A
:10387C0083F83E207B681B685A687B681B6822F4BF
:10388C00E0625A607B681B686FF480625A617B68E7
:10389C001B681A687B681B6822F480621A6078685F
:1038AC00FEF72AFC7868FEF76BFF04E07B681B6868
:1038BC006FF480625A6100BF1037BD4680BD00BFF7
:1038CC000000FFFF80B584B000AF78607B6893F890
:1038DC003D30FB737B6893F83E30BB73BB7B102B86
:1038EC0002D0BB7B402B0AD1FB7B222B07D17B6800
:1038FC001B681A687B681B6822F400621A60FB7BE9
:10390C0003F02803282B07D17B6800221A637B68FD
:10391C00282283F83D2015E07B681B685B6803F464
:10392C000063B3F5006F0AD0FB7B602B07D07B687C
:10393C00202283F83D207B68002283F83E207B68A0
:10394C0000221A637B681B685B6803F40063B3F5A1
:10395C00006F62D17B681B685A687B681B6822F415
:10396C0000625A607B685B6B93F82130DBB2012BF1
:10397C0020D07B685B6B6A4A5A637B685B6B18462A
:10398C00FEF73CF80346002B00F089807B681B682F
:10399C001A687B681B6822F001021A607B6820227F
:1039AC0083F83D207B685B6B5B6B7A68526B1046CF
:1039BC00984774E07B689B6B594A5A637B689B6B96
:1039CC001846FEF71BF80346002B68D07B681B6873
:1039DC005B6903F04003402B0BD17B681B681A69B1
:1039EC007B685B6AD2B21A707B685B6A5A1C7B6814
:1039FC005A627B681B681A687B681B6822F001029C
:103A0C001A607B68202283F83D207B689B6B5B6B84
:103A1C007A68926B1046984741E07B6893F83D308A
:103A2C00DBB2602B25D17B68202283F83D207B689C
:103A3C0000221A647B681B685B6903F04003402B0F
:103A4C000BD17B681B681A697B685B6AD2B21A70EF
:103A5C007B685B6A5A1C7B685A627B681B681A68B5
:103A6C007B681B6822F001021A607868FEF7CBFEB7
:103A7C0015E07B681B685B6903F04003402B0BD19E
:103A8C007B681B681A697B685B6AD2B21A707B68A8
:103A9C005B6A5A1C7B685A627868FEF7ABFE7B68DF
:103AAC001B6CBB60BB6803F00103002B0ED1BB6821
:103ABC0003F00203002B09D1BB6803F00403002BB5
:103ACC0004D1BB6803F00803002B07D07B681B688C
:103ADC005A687B681B6822F4E0625A607B6893F832
:103AEC003D30FB737B681B6C03F00403042B13D178
:103AFC00FB7B282B10D17B680A4ADA627B68002298
:103B0C001A637B68202283F83D207B68002283F8AF
:103B1C003E207868FEF753FE00BF1037BD4680BDCF
:103B2C00393C00080000FFFF80B588B002AFF86098
:103B3C007A603B600B467B81FB68DB6A7B617B694F
:103B4C00082B06D07B69012B03D07B6913F5803FD2
:103B5C0008D1FB681B681A68FB681B6842F480720A
:103B6C001A600BE0FB681B6B122B07D1FB681B6800
:103B7C001A68FB681B6842F480721A603B680093F9
:103B8C007B6800224FF00111F86800F0F7F803464B
:103B9C00002B0DD0FB681B681B6803F48073B3F516
:103BAC00807F03D1FB684FF400721A64032335E065
:103BBC00FB681B69B3F5804F08D17B89DBB21A46D1
:103BCC00FB681B6802F0FE021A611BE07B89DB11AB
:103BDC00DBB203F00603DBB263F00F03DAB2FB686F
:103BEC001B681A613B687A680E49F86800F040F966
:103BFC000346002B01D0012310E07B89DAB2FB686D
:103C0C001B681A613B687A680749F86800F030F95C
:103C1C000346002B01D0012300E00023184618377F
:103C2C00BD4680BD080001000200010080B586B0D1
:103C3C0000AF78600023FB607B685B6A7B617B690B
:103C4C0093F83D30FB744B4B1B68DB084A4AA2FBD4
:103C5C0003231A0A13469B001344DA00D31AFB60A1
:103C6C00FB68002B06D17B691B6C43F020027B693F
:103C7C001A640AE0FB68013BFB607B691B681B68EC
:103C8C0003F40073B3F5007FEAD07B695B6B002B08
:103C9C0003D07B695B6B00229A627B699B6B002B68
:103CAC0003D07B699B6B00229A627B691B681A6844
:103CBC007B691B6822F480621A607B6900225A853A
:103CCC007B695B6B002B03D07B695B6B00225A63B7
:103CDC007B699B6B002B03D07B699B6B00225A6327
:103CEC007B691B681A687B691B6822F001021A60E9
:103CFC007B6993F83D30DBB2602B0ED17B692022BF
:103D0C0083F83D207B69002283F83E207B690022EA
:103D1C001A647869FEF777FD27E0FB7C03F0280333
:103D2C00282B17D17B691B681A687B691B6842F0CA
:103D3C0001021A607B691B681A687B691B6842F474
:103D4C0080621A607B6900221A637B69282283F8DF
:103D5C003D2007E07B69202283F83D207B6900220F
:103D6C0083F83E207869FEF745FD00BF1837BD4645
:103D7C0080BD00BF1800002089B5F81480B584B050
:103D8C0000AFF860B9603B601346FB7148E03B68DC
:103D9C00B3F1FF3F44D0FDF7F5FC0246BB69D31AE3
:103DAC003A689A4202D33B68002B39D1BB681B0C92
:103DBC00DBB2012B0DD1FB681B685B69DA43BB6876
:103DCC0013409BB2002B0CBF01230023DBB21A461D
:103DDC000CE0FB681B689B69DA43BB6813409BB221
:103DEC00002B0CBF01230023DBB21A46FB799A424D
:103DFC0016D1FB6800221A63FB68202283F83D2051
:103E0C00FB68002283F83E20FB681B6C43F0200209
:103E1C00FB681A64FB68002283F83C20012323E032
:103E2C00BB681B0CDBB2012B0DD1FB681B685B69FB
:103E3C00DA43BB6813409BB2002B0CBF0123002359
:103E4C00DBB21A460CE0FB681B689B69DA43BB6863
:103E5C0013409BB2002B0CBF01230023DBB21A468C
:103E6C00FB799A4293D0002318461037BD4680BD8B
:103E7C0080B584B000AFF860B9607A603B6071E0E7
:103E8C00FB681B685B6903F48063B3F5806F23D117
:103E9C00FB681B681A68FB681B6842F400721A60A6
:103EAC00FB681B686FF480625A61FB6800221A631E
:103EBC00FB68202283F83D20FB68002283F83E201B
:103ECC00FB681B6C43F00402FB681A64FB6800225D
:103EDC0083F83C20012367E07B68B3F1FF3F41D0BE
:103EEC00FDF750FC02463B68D31A7A689A4202D31B
:103EFC007B68002B36D1BB681B0CDBB2012B0CD1C1
:103F0C00FB681B685B69DA43BB6813409BB2002BF0
:103F1C0014BF01230023DBB20BE0FB681B689B6919
:103F2C00DA43BB6813409BB2002B14BF0123002360
:103F3C00DBB2002B16D0FB6800221A63FB68202230
:103F4C0083F83D20FB68002283F83E20FB681B6C45
:103F5C0043F02002FB681A64FB68002283F83C20C3
:103F6C00012321E0BB681B0CDBB2012B0CD1FB68DD
:103F7C001B685B69DA43BB6813409BB2002B14BF10
:103F8C0001230023DBB20BE0FB681B689B69DA435F
:103F9C00BB6813409BB2002B14BF01230023DBB280
:103FAC00002B7FF46DAF002318461037BD4680BD43
:103FBC0080B584B000AFF860B9607A6034E0F8681E
:103FCC0000F0B8F80346002B01D0012334E0BB68A5
:103FDC00B3F1FF3F28D0FDF7D5FB02467B68D31A1F
:103FEC00BA689A4202D3BB68002B1DD1FB681B68D0
:103FFC005B6903F08003802B16D0FB6800221A63E8
:10400C00FB68202283F83D20FB68002283F83E20C9
:10401C00FB681B6C43F02002FB681A64FB680022EF
:10402C0083F83C20012307E0FB681B685B6903F005
:10403C008003802BC3D1002318461037BD4680BDAA
:10404C0080B584B000AFF860B9607A6034E0F8688D
:10405C0000F070F80346002B01D0012334E0BB685C
:10406C00B3F1FF3F28D0FDF78DFB02467B68D31AD6
:10407C00BA689A4202D3BB68002B1DD1FB681B683F
:10408C005B6903F00403042B16D0FB6800221A634F
:10409C00FB68202283F83D20FB68002283F83E2039
:1040AC00FB681B6C43F02002FB681A64FB6800225F
:1040BC0083F83C20012307E0FB681B685B6903F075
:1040CC000403042BC3D1002318461037BD4680BD12
:1040DC0080B485B000AF78600023FB60134B1B6885
:1040EC00DB08134AA2FB03231A0A13469B00134452
:1040FC00FB60FB68013BFB60FB68002B07D17B6816
:10410C001B6C43F020027B681A64012308E07B6877
:10411C001B681B6803F40073B3F5007FE9D0002320
:10412C0018461437BD4680BC704700BF18000020ED
:10413C0089B5F81480B483B000AF78607B681B68D5
:10414C005B6903F48063B3F5806F1BD17B681B68DC
:10415C006FF480625A617B6800221A637B682022AC
:10416C0083F83D207B68002283F83E207B681B6C23
:10417C0043F004027B681A647B68002283F83C20BD
:10418C00012300E0002318460C37BD4680BC704765
:10419C0080B483B000AF78607B68DB6AB3F52A0F1C
:1041AC0003D17B680122DA6207E07B68DB6AB3F13A
:1041BC002A4F02D17B680822DA6200BF0C37BD4659
:1041CC0080BC704780B586B000AF78607B68002BF0
:1041DC0001D101236CE27B681B6803F00103002B07
:1041EC0000F08780924B5B6803F00C03042B0CD01F
:1041FC008F4B5B6803F00C03082B12D18C4B5B6864
:10420C0003F48033B3F5803F0BD1894B1B6803F467
:10421C000033002B6CD07B685B68002B68D10123CA
:10422C0046E27B685B68B3F5803F06D1804B1B6828
:10423C007F4A43F4803313602EE07B685B68002B6D
:10424C000CD17B4B1B687A4A23F480331360784B78
:10425C001B68774A23F4802313601DE07B685B683E
:10426C00B3F5A02F0CD1724B1B68714A43F4802319
:10427C0013606F4B1B686E4A43F4803313600BE082
:10428C006B4B1B686A4A23F480331360684B1B68C2
:10429C00674A23F4802313607B685B68002B13D080
:1042AC00FDF770FA386108E0FDF76CFA02463B69DD
:1042BC00D31A642B01D90323FAE15D4B1B6803F479
:1042CC000033002BF0D014E0FDF75CFA386108E005
:1042DC00FDF758FA02463B69D31A642B01D9032324
:1042EC00E6E1534B1B6803F40033002BF0D100E0E4
:1042FC0000BF7B681B6803F00203002B63D04C4BA0
:10430C005B6803F00C03002B0BD0494B5B6803F08C
:10431C000C03082B1CD1464B5B6803F48033002B39
:10432C0016D1434B1B6803F00203002B05D07B68AE
:10433C001B69012B01D00123BAE13D4B1B6823F013
:10434C00F8027B685B69DB00394913430B603AE088
:10435C007B681B69002B20D0364B01221A60FDF7BD
:10436C0011FA386108E0FDF70DFA02463B69D31AE1
:10437C00022B01D903239BE12D4B1B6803F0020395
:10438C00002BF0D02A4B1B6823F0F8027B685B698A
:10439C00DB00274913430B6015E0264B00221A6003
:1043AC00FDF7F0F9386108E0FDF7ECF902463B69DE
:1043BC00D31A022B01D903237AE11D4B1B6803F09E
:1043CC000203002BF0D17B681B6803F00803002B61
:1043DC003AD07B689B69002B19D0174B01221A60CD
:1043EC00FDF7D0F9386108E0FDF7CCF902463B69DE
:1043FC00D31A022B01D903235AE10D4B5B6A03F04C
:10440C000203002BF0D0012000F0B8FA1CE00A4B9C
:10441C0000221A60FDF7B6F938610FE0FDF7B2F92A
:10442C0002463B69D31A022B08D9032340E100BF93
:10443C000010024000004242800442429E4B5B6AE4
:10444C0003F00203002BE9D17B681B6803F0040323
:10445C00002B00F0A6800023FB75974BDB6903F063
:10446C008053002B0DD1944BDB69934A43F080535E
:10447C00D361914BDB6903F08053BB60BB680123B4
:10448C00FB758E4B1B6803F48073002B18D18B4B80
:10449C001B688A4A43F480731360FDF773F9386123
:1044AC0008E0FDF76FF902463B69D31A642B01D97A
:1044BC000323FDE0814B1B6803F48073002BF0D0C9
:1044CC007B68DB68012B06D17B4B1B6A7A4A43F075
:1044DC00010313622DE07B68DB68002B0CD1764B5B
:1044EC001B6A754A23F001031362734B1B6A724AF1
:1044FC0023F0040313621CE07B68DB68052B0CD1F2
:10450C006D4B1B6A6C4A43F0040313626A4B1B6AC3
:10451C00694A43F0010313620BE0674B1B6A664A5E
:10452C0023F001031362644B1B6A634A23F00403F8
:10453C0013627B68DB68002B15D0FDF723F938611B
:10454C000AE0FDF71FF902463B69D31A41F28832A3
:10455C00934201D90323ABE0574B1B6A03F00203D0
:10456C00002BEED014E0FDF70DF938610AE0FDF7F1
:10457C0009F902463B69D31A41F28832934201D9B8
:10458C00032395E04C4B1B6A03F00203002BEED186
:10459C00FB7D012B05D1484BDB69474A23F0805347
:1045AC00D3617B68DB69002B00F08180424B5B6838
:1045BC0003F00C03082B61D07B68DB69022B46D11E
:1045CC003F4B00221A60FDF7DDF8386108E0FDF77B
:1045DC00D9F802463B69D31A022B01D9032367E0B1
:1045EC00354B1B6803F00073002BF0D17B681B6A02
:1045FC00B3F5803F08D1304B5B6823F400327B6805
:10460C009B682D4913434B602B4B5B6823F474124E
:10461C007B68196A7B685B6A0B43274913434B60C1
:10462C00274B01221A60FDF7ADF8386108E0FDF761
:10463C00A9F802463B69D31A022B01D9032337E0B0
:10464C001D4B1B6803F00073002BF0D02FE01C4BAC
:10465C0000221A60FDF796F8386108E0FDF792F831
:10466C0002463B69D31A022B01D9032320E0124BDB
:10467C001B6803F00073002BF0D118E07B68DB693A
:10468C00012B01D1012313E00B4B5B68FB60FB6832
:10469C0003F480327B681B6A9A4206D1FB6803F4F0
:1046AC0070127B685B6A9A4201D0012300E0002300
:1046BC0018461837BD4680BD0010024000700040FF
:1046CC006000424280B584B000AF786039607B688E
:1046DC00002B01D10123D0E06A4B1B6803F00703C8
:1046EC003A689A4210D9674B1B6823F00702654958
:1046FC003B6813430B60634B1B6803F007033A687A
:10470C009A4201D00123B8E07B681B6803F00203D6
:10471C00002B20D07B681B6803F00403002B05D012
:10472C00594B5B68584A43F4E06353607B681B68E1
:10473C0003F00803002B05D0534B5B68524A43F43B
:10474C0060535360504B5B6823F0F0027B689B68AE
:10475C004D4913434B607B681B6803F00103002B2E
:10476C0040D07B685B68012B07D1474B1B6803F477
:10477C000033002B15D101237FE07B685B68022B93
:10478C0007D1414B1B6803F00073002B09D10123A7
:10479C0073E03D4B1B6803F00203002B01D1012396
:1047AC006BE0394B5B6823F003027B685B6836492E
:1047BC0013434B60FCF7E6FFF8600AE0FCF7E2FFFE
:1047CC000246FB68D31A41F28832934201D9032383
:1047DC0053E02D4B5B6803F00C027B685B689B001D
:1047EC009A42EBD1274B1B6803F007033A689A42B5
:1047FC0010D2244B1B6823F0070222493B68134359
:10480C000B60204B1B6803F007033A689A4201D0F7
:10481C00012332E07B681B6803F00403002B08D0F3
:10482C00194B5B6823F4E0627B68DB681649134321
:10483C004B607B681B6803F00803002B09D0124BFC
:10484C005B6823F460527B681B69DB000E491343E1
:10485C004B6000F021F802460B4B5B681B0903F020
:10486C000F030A49CB5C22FA03F3094A1360094B84
:10487C001B681846FCF744FF002318461037BD464A
:10488C0080BD00BF0020024000100240FC5A00080E
:10489C00180000201C00002080B487B000AF00235B
:1048AC00FB600023BB6000237B6100237B60002343
:1048BC003B611E4B5B68FB60FB6803F00C03042B35
:1048CC0002D0082B03D027E0194B3B6127E0FB6893
:1048DC009B0C03F00F03174AD35C7B60FB6803F45B
:1048EC008033002B10D0114B5B685B0C03F0010381
:1048FC00114AD35CBB607B680D4A02FB03F2BB68B8
:10490C00B2FBF3F37B6104E07B680C4A02FB03F31C
:10491C007B617B693B6102E0054B3B6100BF3B69FE
:10492C0018461C37BD4680BC704700BF00100240C3
:10493C0000127A00145B0008245B000800093D009B
:10494C0080B400AF024B1B681846BD4680BC704754
:10495C001800002080B500AFFFF7F2FF0246054BB0
:10496C005B681B0A03F007030349CB5C22FA03F3D1
:10497C00184680BD001002400C5B000880B485B066
:10498C0000AF78600A4B1B680A4AA2FB03235B0A40
:10499C007A6802FB03F3FB6000BFFB685A1EFA60E7
:1049AC00002BF9D100BF00BF1437BD4680BC704747
:1049BC0018000020D34D621080B582B000AF786033
:1049CC007B68002B01D1012341E07B6893F83D30DB
:1049DC00DBB2002B06D17B68002283F83C20786880
:1049EC00FCF7BCFB7B68022283F83D207B681A68CD
:1049FC007B6804331946104600F05CFA7B68012290
:104A0C0083F846207B68012283F83E207B680122D4
:104A1C0083F83F207B68012283F840207B680122C9
:104A2C0083F841207B68012283F842207B680122B5
:104A3C0083F843207B68012283F844207B680122A1
:104A4C0083F845207B68012283F83D20002318461B
:104A5C000837BD4680BD000080B485B000AF7860DB
:104A6C007B6893F83D30DBB2012B01D001233AE097
:104A7C007B68022283F83D207B681B68DA687B68C0
:104A8C001B6842F00102DA607B681B68184A93428B
:104A9C000ED07B681B68B3F1804F09D07B681B6814
:104AAC00144A934204D07B681B68134A934211D179
:104ABC007B681B689B6803F00703FB60FB68062B95
:104ACC0010D07B681B681A687B681B6842F0010277
:104ADC001A6007E07B681B681A687B681B6842F0E9
:104AEC0001021A60002318461437BD4680BC70477B
:104AFC00002C0140000400400008004080B584B048
:104B0C0000AF78607B681B68DB68FB607B681B68A8
:104B1C001B69BB60BB6803F00203002B20D0FB6851
:104B2C0003F00203002B1BD07B681B686FF00202A2
:104B3C001A617B6801221A777B681B689B6903F0FA
:104B4C000303002B03D0786800F098F905E078682F
:104B5C0000F08BF9786800F09AF97B6800221A77DC
:104B6C00BB6803F00403002B20D0FB6803F00403A4
:104B7C00002B1BD07B681B686FF004021A617B68EA
:104B8C0002221A777B681B689B6903F44073002B25
:104B9C0003D0786800F072F905E0786800F065F9E8
:104BAC00786800F074F97B6800221A77BB6803F010
:104BBC000803002B20D0FB6803F00803002B1BD04C
:104BCC007B681B686FF008021A617B6804221A77F5
:104BDC007B681B68DB6903F00303002B03D0786848
:104BEC0000F04CF905E0786800F03FF9786800F0C7
:104BFC004EF97B6800221A77BB6803F01003002B78
:104C0C0020D0FB6803F01003002B1BD07B681B68C3
:104C1C006FF010021A617B6808221A777B681B6898
:104C2C00DB6903F44073002B03D0786800F026F99D
:104C3C0005E0786800F019F9786800F028F97B68CD
:104C4C0000221A77BB6803F00103002B0CD0FB6821
:104C5C0003F00103002B07D07B681B686FF0010287
:104C6C001A617868FCF7D2F9BB6803F08003002B5B
:104C7C000CD0FB6803F08003002B07D07B681B680B
:104C8C006FF080021A61786800F07FFABB6803F05D
:104C9C004003002B0CD0FB6803F04003002B07D023
:104CAC007B681B686FF040021A61786800F0F8F8B6
:104CBC00BB6803F02003002B0CD0FB6803F020032F
:104CCC00002B07D07B681B686FF020021A61786894
:104CDC0000F052FA00BF1037BD4680BD80B584B0DD
:104CEC0000AF786039600023FB737B6893F83C302D
:104CFC00012B01D10223B4E07B68012283F83C2014
:104D0C007B68022283F83D207B681B689B68BB6034
:104D1C00BB6823F07703BB60BB6823F47F43BB60A5
:104D2C007B681B68BA689A603B681B68B3F5005FC8
:104D3C003ED0B3F5005F00F28780B3F5805F00F0E2
:104D4C008680B3F5805F7FD8702B1AD0702B7BD800
:104D5C00602B50D0602B77D8502B3CD0502B73D875
:104D6C00402B58D0402B6FD8302B64D0302B6BD8C5
:104D7C00202B60D0202B67D8002B5CD0102B5AD066
:104D8C0062E07B6818683B6899683B685A683B68C6
:104D9C00DB6800F074F97B681B689B68BB60BB68C0
:104DAC0043F07703BB607B681B68BA689A604FE07E
:104DBC007B6818683B6899683B685A683B68DB6895
:104DCC0000F05DF97B681B689A687B681B6842F48D
:104DDC0080429A603CE07B6818683B6859683B6885
:104DEC00DB681A4600F0D4F87B681B685021184623
:104DFC0000F02BF92CE07B6818683B6859683B681D
:104E0C00DB681A4600F0F2F87B681B6860211846D4
:104E1C0000F01BF91CE07B6818683B6859683B681C
:104E2C00DB681A4600F0B4F87B681B684021184612
:104E3C0000F00BF90CE07B681A683B681B6819469C
:104E4C00104600F002F903E00123FB7300E000BF01
:104E5C007B68012283F83D207B68002283F83C208C
:104E6C00FB7B18461037BD4680BD80B483B000AFC5
:104E7C00786000BF0C37BD4680BC704780B483B0EF
:104E8C0000AF786000BF0C37BD4680BC704780B463
:104E9C0083B000AF786000BF0C37BD4680BC704754
:104EAC0080B483B000AF786000BF0C37BD4680BCC7
:104EBC007047000080B485B000AF786039607B68C3
:104ECC001B68FB607B682F4A93420BD07B68B3F165
:104EDC00804F07D07B682C4A934203D07B682B4AC7
:104EEC00934208D1FB6823F07003FB603B685B685E
:104EFC00FA681343FB607B68224A93420BD07B68B1
:104F0C00B3F1804F07D07B681F4A934203D07B6874
:104F1C001E4A934208D1FB6823F44073FB603B6844
:104F2C00DB68FA681343FB60FB6823F080023B6884
:104F3C005B691343FB607B68FA681A603B689A688C
:104F4C007B68DA623B681A687B689A627B680D4AF8
:104F5C00934203D13B681A697B681A637B68012210
:104F6C005A617B681B6903F00103002B05D07B6839
:104F7C001B6923F001027B681A6100BF1437BD4620
:104F8C0080BC7047002C0140000400400008004029
:104F9C0080B487B000AFF860B9607A60FB681B6AB8
:104FAC007B61FB681B6A23F00102FB681A62FB68D9
:104FBC009B693B613B6923F0F0033B617B681B0100
:104FCC003A6913433B617B6923F00A037B617A697D
:104FDC00BB6813437B61FB683A699A61FB687A6929
:104FEC001A6200BF1C37BD4680BC704780B487B0C6
:104FFC0000AFF860B9607A60FB681B6A7B61FB6884
:10500C001B6A23F01002FB681A62FB689B693B6108
:10501C003B6923F470433B617B681B033A69134380
:10502C003B617B6923F0A0037B61BB681B017A6940
:10503C0013437B61FB683A699A61FB687A691A626F
:10504C0000BF1C37BD4680BC704780B485B000AF34
:10505C00786039607B689B68FB60FB6823F07003A9
:10506C00FB603A68FB68134343F00703FB607B6803
:10507C00FA689A6000BF1437BD4680BC704780B494
:10508C0087B000AFF860B9607A603B60FB689B68E2
:10509C007B617B6923F47F437B613B681A027B68ED
:1050AC001A43BB6813437A6913437B61FB687A69C3
:1050BC009A6000BF1C37BD4680BC704780B485B079
:1050CC0000AF786039607B6893F83C30012B01D1DC
:1050DC00022346E07B68012283F83C207B68022295
:1050EC0083F83D207B681B685B68FB607B681B68F2
:1050FC009B68BB60FB6823F07003FB603B681B681C
:10510C00FA681343FB607B681B68FA685A607B681B
:10511C001B68164A93420ED07B681B68B3F1804F14
:10512C0009D07B681B68124A934204D07B681B68C9
:10513C00104A93420CD1BB6823F08003BB603B68E0
:10514C005B68BA681343BB607B681B68BA689A607B
:10515C007B68012283F83D207B68002283F83C2089
:10516C00002318461437BD4680BC7047002C014004
:10517C00000400400008004080B483B000AF7860A9
:10518C0000BF0C37BD4680BC704780B483B000AF05
:10519C00786000BF0C37BD4680BC7047014B186867
:1051AC00704700BF2400002070B500260C4D0D4C3C
:1051BC00641BA410A64209D100F05CFC00260A4D29
:1051CC000A4C641BA410A64205D170BD55F8043BD3
:1051DC0098470136EEE755F8043B98470136F2E75D
:1051EC005C5B00085C5B00085C5B0008605B0008B3
:1051FC0003460244934200D1704703F8011BF9E7C0
:10520C000EB46FF0004100B59CB01DAB029006903F
:10521C00079104910848094953F8042B059100683B
:10522C0002A9019300F068F80022029B1A701CB0CE
:10523C005DF804EB03B07047240000200802FFFF68
:10524C002DE9F0478E6882469E420C4690461F46DA
:10525C0038D88A8912F4906F32D0256809690133E5
:10526C00A5EB010965694B4405EB450505EBD575C7
:10527C006D109D4238BF1D46530531D5294600F0AF
:10528C0053FB064650B90C234FF0FF30CAF80030E0
:10529C00A38943F04003A381BDE8F0874A46216906
:1052AC0000F0CEFAA38923F4906343F08003A3812A
:1052BC0026614E4426603E466561A5EB0905A56056
:1052CC00BE4200D93E4632464146206800F0C6FA3E
:1052DC00A36822689B1B32440020A3602260DBE79A
:1052EC002A4600F07BFB06460028E1D15046216996
:1052FC0000F0CEFAC7E700002DE9F04F98468B89F5
:10530C0007461B060D4614469DB00ED50B6963B9B6
:10531C00402100F009FB2860286120B90C233B6078
:10532C004FF0FF30D1E040236B6100230993202321
:10533C008DF8293030234FF00109CDF80C80DFF8BF
:10534C00A4818DF82A3023469A4613F8012B0AB112
:10535C00252AF9D1BAEB040B0BD05B462246294621
:10536C003846FFF76DFF013000F0AA80099A5A44C5
:10537C0009929AF80030002B00F0A28000234FF025
:10538C00FF32CDE905230AF1010A049307938DF846
:10539C0053301A935446052214F8011B514800F05F
:1053AC0041FA049AD8B9D00644BF20238DF8533063
:1053BC00110744BF2B238DF853309AF800302A2B59
:1053CC0015D0544600204FF00A0C079A214611F8CC
:1053DC00013B303B092B4ED9B0B1079214E0A0EB46
:1053EC00080309FA03F31343A2460493D2E7039B81
:1053FC00191D1B680391002BBBBF5B4242F00202DC
:10540C0007930793B8BF049223782E2B0CD16378A3
:10541C002A2B35D1039B02341A1D1B680392002BD7
:10542C00B8BF4FF0FF330593DFF8C8A003225046F6
:10543C00217800F0F7F940B14023A0EB0A0003FA01
:10544C0000F0049B01340343049314F8011B06225F
:10545C0025488DF8281000F0E5F9002838D0234BAA
:10546C001BBB039B073323F0070308330393099BF0
:10547C003344099367E70C4601200CFB0232A5E785
:10548C0000234FF00A0C194601340593204610F8FE
:10549C00012B303A092A03D9002BC5D00591C3E75B
:1054AC00044601230CFB0121F0E703AB00932A46D1
:1054BC0038460F4B04A9AFF30080421C0646D6D1E8
:1054CC00AB895B063FF52CAF09981DB0BDE8F08F9A
:1054DC0003AB00932A463846054B04A900F07CF830
:1054EC00EBE700BF265B0008305B00080000000003
:1054FC004D5200082C5B00082DE9F04716469946E2
:10550C008A680B6907469342B8BF1346336091F81B
:10551C0043200C46DDF820800AB101333360236848
:10552C00990642BF336802333360256815F00605CF
:10553C0006D104F1190AE36832689B1AAB4228DCE5
:10554C0094F84320131E226818BF012392062DD411
:10555C004946384604F14302C047013020D0236845
:10556C00E56803F00603042B18BF002532684FF0E2
:10557C000006A36808BFAD1A226908BF25EAE575C5
:10558C009342C4BF9B1AED181A34B5421AD10020AD
:10559C0008E00123524649463846C047013003D142
:1055AC004FF0FF30BDE8F0870135C4E73020E1183B
:1055BC0081F843005A1C94F845102244023382F8B7
:1055CC004310C5E70123224649463846C0470130FF
:1055DC00E6D00136D9E700002DE9FF470C46277EBF
:1055EC009146782F80469A460C9904F1430207D8CD
:1055FC00622F0AD8002F00F0D980582F00F0A48019
:10560C0004F1420684F842703AE0A7F16303152BCB
:10561C00F6D801A050F823F07D56000891560008EA
:10562C000D5600080D5600080D5600080D560008C2
:10563C00915600080D5600080D5600080D5600082E
:10564C000D5600089F570008C156000881570008E6
:10565C000D5600080D560008C15700080D560008DD
:10566C00C15600080D5600080D5600088957000851
:10567C000B6804F142061A1D1B680A6084F842305C
:10568C000123A4E0256808682E0600F104030AD55E
:10569C0005680B60002D03DA2D236D4284F843302E
:1056AC000A235E4819E015F0400F05680B6018BF1F
:1056BC002DB2EFE70B682568181D0860280601D588
:1056CC001D6802E06906FBD51D886F2F0CBF0823EF
:1056DC000A235248002184F843106668002EA8BFA4
:1056EC002168A660A4BF21F0040121600DB9002E31
:1056FC004DD01646B5FBF3F103FB1157C75D06F809
:10570C00017D2F46BB420D46F4D9082B0BD12368E3
:10571C00DF0708D5236961689942DEBF302306F89C
:10572C00013C06F1FF36921B22614B462146404656
:10573C00CDF800A003AAFFF7DFFE01304CD14FF0EB
:10574C00FF3004B0BDE8F087344884F845700E682B
:10575C00236856F8045B1F060E6014D5D90744BFA6
:10576C0043F0200323601DB9236823F0200323603A
:10577C001023AFE7236843F02003236078232848E5
:10578C0084F84530E3E75E0648BFADB2E6E716465F
:10579C00BBE70B6826681D1D60690D6035061B682C
:1057AC0001D5186002E07106FBD51880002316465F
:1057BC002361BAE70B681A1D0A601E680021304687
:1057CC00626800F02FF808B1801B60606368236189
:1057DC00002384F84330A8E7324649464046236903
:1057EC00D0470130ABD023689B0713D4E068039BF0
:1057FC009842B8BF1846A4E70123324649464046B2
:10580C00D04701309BD00135E36803995B1AAB425A
:10581C00F2DCEBE7002504F11906F5E7375B00082D
:10582C00485B0008034610B5C9B2024493421846BF
:10583C0001D1002003E0047801338C42F6D110BD75
:10584C000A44914200F1FF3300D1704710B511F8B2
:10585C00014B914203F8014FF9D110BD884210B5AC
:10586C0001EB020402D98442234607D8431EA1420D
:10587C0008D011F8012B03F8012FF8E70146024478
:10588C008A4200D110BD13F8014D02F8014DF7E723
:10589C0038B50546002943D051F8043C0C1F002BA9
:1058AC00B8BFE41800F0D0F81E4A1368104633B99C
:1058BC00636014602846BDE8384000F0CBB8A342C2
:1058CC000AD921686218934201BF1A685B685218A2
:1058DC00226063600460EDE71A465B680BB1A3427B
:1058EC00FAD911685018A0420BD120680144501805
:1058FC0083421160DED118685B680144116053600B
:10590C00D8E702D90C232B60D4E7206821188B42EE
:10591C0001BF19685B680918216063605460C9E7AE
:10592C0038BD00BFF8000020F8B5CD1C25F00305EC
:10593C0008350C2D38BF0C25002D064601DBA9427D
:10594C0003D90C2333600020F8BD00F07DF8214909
:10595C000A6814469CB9204F3B6823B9214630464F
:10596C0000F062F838602946304600F05DF8431CC0
:10597C0023D10C233046336000F06CF8E3E7236846
:10598C005B1B17D40B2B03D923601C44256004E04C
:10599C006368A2420CBF0B605360304600F05AF8AB
:1059AC0004F10B00231D20F00700C21ACCD01B1AE7
:1059BC00A350C9E722466468CCE7C41C24F0030456
:1059CC00A042E3D0211A304600F02EF80130DDD190
:1059DC00CFE700BFF8000020FC000020F8B5074618
:1059EC0014460E4621B91146BDE8F840FFF79CBF9E
:1059FC0022B9FFF74DFF25462846F8BD00F030F8D8
:105A0C00A0420FD221463846FFF78EFF05460028EC
:105A1C00F2D031462246FFF713FF31463846FFF7E6
:105A2C0037FFE9E73546E7E738B50023054D04466F
:105A3C0008462B60FBF7FCFB431C02D12B6803B11F
:105A4C00236038BDB8010020014800F011B800BF38
:105A5C00C0010020014800F00CB800BFC0010020BC
:105A6C0051F8043C181F002BBCBF0B58C0187047D2
:105A7C0070477047F8B500BFF8BC08BC9E4670472D
:0C5A8C00F8B500BFF8BC08BC9E4670478F
:105A98004D414E5F5245443A200000004D414E5F53
:105AA800475245454E3A20004D414E5F59454C4CB2
:105AB8004F573A20000000005245443A20000000A9
:105AC800475245454E3A200059454C4C4F573A20CD
